S019000048756D616E5265616374696F6E54696D652E737265634E
S113000071C000008EC000008CC000008AC00000D7
S113001088C0000086C0000084C0000082C00000C8
S113002080C000007EC000007CC000007AC00000D8
S113003078C0000076C0000074C0000072C00000E8
S113004070C000006EC000006CC000006AC00000F8
S113005068C0000092C0000064C0000062C00000DC
S113006060C000005EC000005CC000005AC0000018
S113007058C0000056C0000054C0000052C0000028
S113008050C000004EC000004CC000004AC0000038
S113009048C0000046C0000044C0000042C0000048
S11300A040C000003EC000003CC000003AC0000058
S11300B038C0000036C0000034C0000032C0000068
S11300C030C000002EC000002CC000002AC0000078
S11300D028C0000026C0000024C0000022C0000088
S11300E020C0000011241FBECFEFD1E2DEBFCDBF80
S11300F000E00CBF12E0A0E0B2E0E2E3FEE000E0CA
S11301000BBF02C007900D92AA3FB107D9F723E0B5
S1130110AAEFB2E001C01D92AE35B207E1F748D1B3
S113012086C66ECF1AB88FEF87B989EF87BD82E094
S113013080936E0093E095BD84BD10925603109297
S1130140550381E08093540310924D0310924C03A5
S113015040D1E8E5F3E084E092E0958384839183E1
S11301608083938382839C0145E450E061E070E0E6
S113017082E192E0EAD2789408951F920F920FB62A
S11301800F9211248F9380914E03882329F080913C
S11301904E03815080934E0380915703882329F0A6
S11301A08091570381508093570380915303882390
S11301B029F0809153038150809353038F910F90C2
S11301C00FBE0F901F901895CF93DF9381E080931B
S11301D04E0380914C0390914D03029761F5439A2D
S11301E0409A80914F03909150030196909350034D
S11301F080934F038091550390915603883B9B4015
S1130200D8F420915A0330915B0346E250E061E058
S113021070E088E592E099D284E090E090934D03F9
S113022080934C0380914F03909150038131974206
S113023008F44EC009C018B860914F037091500380
S1130240613187E2780760F020915A0330915B03B3
S11302504FE250E061E070E08FE792E076D238C080
S113026080914C0390914D03039761F581E090E0F8
S113027060D5C8E5D3E02A813B8144E150E061E0E8
S113028070E08FEA92E061D281E090E04DD59F93D7
S11302908F9384EC92E09F938F938B818F938A81C9
S11302A08F9344D22A813B8147E250E061E070E0C1
S11302B08AEC92E04AD20F900F900F900F900F901B
S11302C00F9006C080914C0390914D03049761F404
S11302D010924D0310924C03109256031092550342
S11302E01092500310924F03DF91CF91089581E053
S11302F08093570380915403823079F018F481304D
S113030031F008958330E1F0843001F10895499982
S113031026C082E080935403089549990DC083E078
S11303208093540380914C0390914D0301969093D4
S11303304D0380934C03089581E080935403089502
S1130340499B0DC084E0809354030895499904C0E7
S113035083E080935403089581E0809354030895C7
S113036081E08093530380914C0390914D03019756
S1130370F1F4CED160EA7FE05DD18056904F909346
S1130380520380935103209155033091560328174B
S1130390390738F42F5F3F4F3093560320935503AA
S11303A0089582E090E090934D0380934C03089568
S11303B0B9DE80914E03811101C006DF809157039D
S11303C0811101C094DF809153038111F2CFC8DF02
S11303D0F0CF87E68093C40088E18093C10008953C
S11303E0CF93C82F873061F420915C0330915D0373
S11303F047E050E061E070E082EF92E0A6D10BC0EC
S11304008A3011F48DE0ECDFE0ECF0E0808185FFD0
S1130410FDCFC093C60080E090E0CF9108956F9225
S11304207F928F929F92AF92BF92CF92DF92EF9280
S1130430FF920F931F93CF93DF9320914A03309140
S11304404B03232B09F0CCC08C010F2EFAEF8F2E17
S1130450F2E09F2EF02DC0ECD0E00F2EF6ECCF2E64
S1130460D12CF02D54010F2EF9EF6F2EF2E07F2ED8
S1130470F02D88818823ECF7888184FDC4C08881AD
S113048083FDC4C0F60180818D3011F08A3061F49F
S11304908AE0F4018083B801A3DF8AEF92E09093AD
S11304A04B0380934A039CC0893039F090EE980F37
S11304B09F3520F0803AA8F001C080E2F9E48F165D
S11304C0F3E09F0621F4B80187E08ADFD2CF7401FC
S11304D09FEFE91AF90AF4018083B80181DF47012B
S11304E0C8CF8231B9F130F4833009F492C0883036
S11304F0E9F0BFCF873129F08F37C1F0853179F02A
S1130500B8CFFAEF8F16F2E09F0609F008F4B1CFE6
S1130510F40131978081803209F04AC0AACF8AEF72
S1130520881682E0980609F070F5A3CF9AEF891631
S113053092E0990609F008F49CCFB80188E050DFF6
S1130540B80180E24DDFB80188E04ADFE1E08E1AAD
S113055091088FCFB8018DE043DFFAEF8F16F2E0F8
S11305609F0609F008F485CF0F2EFAEFEF2EF2E084
S1130570FF2EF02DB801F70181917F0131DF8E1438
S11305809F04C1F776CFB80188E02ADFB80180E282
S113059027DFB80188E024DFF1E08F1A91088AEFA1
S11305A0881682E0980679F7F30131964F0161CFFE
S11305B07401F1E0EF1AF108B80188E011DFB80125
S11305C080E20EDFB80188E00BDF4701EA14FB0488
S11305D009F44FCFF70182917F01803269F749CF47
S11305E0E0914A03F0914B03CF01019690934B03A2
S11305F080934A0380818A3021F410924B03109235
S11306004A0390E008C08EEF9FEF05C08FEF9FEF85
S113061002C08FEF9FEFDF91CF911F910F91FF9059
S1130620EF90DF90CF90BF90AF909F908F907F908E
S11306306F90089597FB072E16F4009406D077FD6B
S113064008D00BD007FC05D03EF4909581959F4FC0
S11306500895709561957F4F0895AA1BBB1B51E1C6
S113066007C0AA1FBB1FA617B70710F0A61BB70B1E
S1130670881F991F5A95A9F780959095BC01CD01C3
S113068008958F929F92AF92BF92CF92DF92EF9292
S1130690FF92CF93DF93EC01688179818A819B81FA
S11306A0611571058105910521F464E279ED8BE50D
S11306B097E02DE133EF41E050E05CD349015A016A
S11306C09B01AC01A7EAB1E471D36B017C01ACEEF0
S11306D0B4EFA501940176D3DC01CB018C0D9D1DF3
S11306E0AE1DBF1DB7FF03C00197A109B0488883A1
S11306F09983AA83BB839F77DF91CF91FF90EF907B
S1130700DF90CF90BF90AF909F908F900895B9CF16
S113071080E092E0B6CFA0E0B0E080930002909336
S11307200102A0930202B09303020895CF93DF93D2
S1130730CDB7DEB7AE01465F5F4F688579858E81A0
S11307409F8145D0DF91CF9108958F929F92AF9270
S1130750BF92CF92DF92EF92FF920F931F93CF93AA
S1130760DF935B014A017901D90113962C9121FF92
S11307701DC0C0E0D0E0C815D905D9F08C016C01CA
S1130780CA0CDB1CC8010C151D0571F00F5F1F4F4F
S1130790D7011896ED91FC911997B701DC018C9162
S11307A01995892B79F305C02196E5CF80E090E077
S11307B001C0CE01DF91CF911F910F91FF90EF9077
S11307C0DF90CF90BF90AF909F908F9008952F921D
S11307D03F924F925F926F927F928F929F92AF92CD
S11307E0BF92CF92DF92EF92FF920F931F93CF931A
S11307F0DF93CDB7DEB72B970FB6F894DEBF0FBEED
S1130800CDBF6C017B018A01FC01178216828381B2
S113081081FFBFC1CE0101963C01F6019381F7012E
S113082093FD859193FF81917F01882309F4ADC1E4
S1130830853239F493FD859193FF81917F0185324F
S113084021F4B60190E0D6D1E8CF912C212C312CA3
S1130850FFE1F315D8F08B3279F038F4803279F077
S11308608332A1F4232D20611DC08D3261F08033C9
S113087069F4232D216016C0832D8260382EE32D68
S1130880E4603E2E2AC0F32DF8601DC037FC2DC055
S113089020ED280F2A3040F08E32B9F436FC75C1B1
S11308A0232D2064322E19C036FE06C08AE0989E9D
S11308B0200D1124922E11C0EAE02E9E200D112449
S11308C0222EF32DF0623F2E08C08C3621F4832DA6
S11308D08068382E02C0883641F4F70193FD859173
S11308E093FF81917F018111B3CF982F9F7D955400
S11308F0933028F40C5F1F4F9FE399830DC0833618
S113090031F0833771F0833509F055C020C0F80108
S1130910808189830E5F1F4F88248394912C530117
S113092012C02801F2E04F0E511CF801A080B180E2
S113093036FE03C0692D70E002C06FEF7FEFC50182
S11309404ED14C018201F32DFF773F2E15C02801B3
S113095022E0420E511CF801A080B18036FE03C093
S1130960692D70E002C06FEF7FEFC5012DD14C01FE
S1130970F32DF0683F2E820133FC19C0822D90E0E4
S113098088169906A0F4B60180E290E033D12A9447
S1130990F5CFF50137FC859137FE81915F01B601F2
S11309A090E028D121102A9421E0821A9108811420
S11309B0910479F7E1C0843611F0893639F5F801EC
S11309C037FE07C060817181828193810C5F1F4F64
S11309D008C060817181072E000C880B990B0E5F93
S11309E01F4FF32DFF763F2E97FF09C090958095FA
S11309F0709561957F4F8F4F9F4FF0683F2E2AE08F
S1130A0030E0A30133D1882E861844C0853731F4F1
S1130A10232D2F7EB22E2AE030E025C0932D997F1E
S1130A20B92E8F36C1F018F4883579F0AEC080370E
S1130A3019F0883721F0A9C0E92FE061BE2EB4FE79
S1130A400DC0FB2DF460BF2E09C034FE0AC0292F4F
S1130A502660B22E06C028E030E005C020E130E078
S1130A6002C020E132E0F801B7FE07C06081718165
S1130A70828193810C5F1F4F06C06081718180E089
S1130A8090E00E5F1F4FA301F1D0882E8618FB2D36
S1130A90FF773F2E36FE0DC0232D2E7FA22E891404
S1130AA058F434FE0BC032FC09C0832D8E7EA82E70
S1130AB005C0B82CA32C03C0B82C01C0B92CA4FECB
S1130AC00FC0FE01E80DF11D8081803321F49A2DC1
S1130AD0997EA92E09C0A2FE06C0B394B39404C0A3
S1130AE08A2D867809F0B394A3FC10C0A0FE06C03A
S1130AF0B21480F4280C922C9B180DC0B21458F434
S1130B00B60180E290E076D0B394F8CFB21418F432
S1130B102B1802C0982C212CA4FE0FC0B60180E330
S1130B2090E068D0A2FE16C0A1FC03C088E790E064
S1130B3002C088E590E0B6010CC08A2D867851F099
S1130B40A1FE02C08BE201C080E2A7FC8DE2B601E7
S1130B5090E050D0891430F4B60180E390E04AD09C
S1130B609A94F8CF8A94F301E80DF11D8081B601BF
S1130B7090E040D08110F6CF222009F44ECEB60189
S1130B8080E290E037D02A94F7CFF60186819781EE
S1130B9002C08FEF9FEF2B960FB6F894DEBF0FBE07
S1130BA0CDBFDF91CF911F910F91FF90EF90DF9018
S1130BB0CF90BF90AF909F908F907F906F905F90F9
S1130BC04F903F902F900895FC0105906150704024
S1130BD00110D8F7809590958E0F9F1F0895FC0102
S1130BE06150704001900110D8F7809590958E0F58
S1130BF09F1F08950F931F93CF93DF93FB012381CE
S1130C0021FD03C08FEF9FEF2CC022FF16C0468149
S1130C105781248135814217530744F4A081B1815F
S1130C209D012F5F3F4F318320838C932681378131
S1130C302F5F3F4F3783268314C08B01EC01FB01E8
S1130C400084F185E02D1995892BE1F6D8011696DB
S1130C508D919C911797019617969C938E93169756
S1130C60CE01DF91CF911F910F910895FA01AA2728
S1130C70283051F1203181F1E8946F936E7F6E5FDB
S1130C807F4F8F4F9F4FAF4FB1E03ED0B4E03CD089
S1130C90670F781F891F9A1FA11D680F791F8A1F6C
S1130CA0911DA11D6A0F711D811D911DA11D20D0D3
S1130CB009F468943F912AE0269F11243019305D8D
S1130CC03193DEF6CF010895462F4770405D41937E
S1130CD0B3E00FD0C9F7F6CF462F4F70405D4A33CB
S1130CE018F0495D31FD4052419302D0A9F7EACF93
S1130CF0B4E0A6959795879577956795BA95C9F7C2
S1130D0000976105710508959B01AC010A2E0694B4
S1130D105795479537952795BA95C9F7620F731F6D
S1130D20841F951FA01D0895A8E1B0E042E050E0A3
S1130D3005C012D0272F11C0DC01CB01FC01F999A9
S1130D40FECF06C0F2BDE1BDF89A319600B40D9213
S1130D5041505040B8F70895262FF999FECF1FBA95
S1130D6092BD81BD20BD0FB6F894FA9AF99A0FBED0
S1130D7001960895052E97FB16F400940FD057FDA5
S1130D8005D024D007FC02D046F408C05095409505
S1130D90309521953F4F4F4F5F4F08959095809523
S1130DA0709561957F4F8F4F9F4F089531D0A59FC8
S1130DB0900DB49F900DA49F800D911D1124089552
S1130DC0B7FFF4CFF3DF821B930B0895A1E21A2E31
S1130DD0AA1BBB1BFD010DC0AA1FBB1FEE1FFF1FDB
S1130DE0A217B307E407F50720F0A21BB30BE40B2B
S1130DF0F50B661F771F881F991F1A9469F7609572
S1130E007095809590959B01AC01BD01CF0108952B
S1130E10A29FB001B39FC001A39F700D811D112437
S1130E20911DB29F700D811D1124911D0895F89498
S1050E30FFCFEE
S1130E32010000000000000300000000F0010F02A6
S1130E42000050756C736520656C20626F746F6E60
S1130E52207061726120656E63656E6465722065DF
S1130E626C206C6564200A0D20204174656E6369F0
S1130E726F6E20616C204C6564206F20536F6E6925
S1130E82646F2E2E21200A005465206164656C6112
S1130E926E74617374652121200A2050756C73612C
S1130EA2206465206E7565766F2E2E200A0D00541F
S1130EB269656D706F206C696D697465204578632E
S1130EC2656469646F2E2E21200A2050756C73614B
S1130ED2206465206E7565766F2E2E200A0D0053F0
S1130EE275207469656D706F20657320656E206D61
S1130EF2733A20002564200A0D000A2050756C7391
S1130F0265207061726120696E74656E7461726CC1
S1130F126F206465206E7565766F2E2E2021200A5F
S10D0F2220002A72696E672A0A0093
S9030000FC
